:020000040000FA
:060000000A128A110C280F
:10000800FE00030EF1000A08F2000A128A11A42960
:100018000A128A110F2883132A30FD000230FE00CD
:100028002C30FF00203084000A128A111D220A1287
:100038008A11B201B301B401B501B601F801F901A1
:10004800FA0183010A128A11E8296430F3000030AA
:10005800F4007A0883120313AE00AF012E08F500EE
:100068002F08F6000A128A119A200A128A117308B8
:1000780083120313B0003008B5006430F300003079
:10008800F4007A08AE00AF012E08F5002F08F6003C
:100098000A128A1103210A128A11730883120313A0
:1000A800B0003008B6000A30F3000030F40036081B
:1000B800AE00AF012E08F5002F08F6000A128A11CB
:1000C8009A200A128A11730883120313B0003008A9
:1000D800F8000A30F3000030F4007A08AE00AF01EF
:1000E8002E08F5002F08F6000A128A1103210A12B9
:1000F8008A11730883120313B0003008F9007908D5
:10010800203E840083130008AE002E08B40078084F
:10011800203E84000008AE002E08B3003508203EBB
:1001280084000008AE002E08B200080083120313F2
:10013800AB01F41FA028A128A828F309F409F30AA1
:100148000319F40AAB01AB0AF61FAB28AC28B52893
:10015800F509F609F50A0319F60A0130F7007708D8
:10016800AB06AC01AD01730874040319BC28BD28A3
:10017800F428AA01AA0ACB2801300310F30DF40DC4
:10018800FF3E031DC1280130F7007708AA07F41FB6
:10019800CE28CF28C02801300310AC0DAD0DFF3E8E
:1001A800031DD02874087602031DDC287308750225
:1001B800031CDF28E028E7287308F5027408031CED
:1001C800F603F6022C1401300310F40CF30CFF3E76
:1001D800031DE8280130AA02031DF328F428CF28BC
:1001E8002B080319F828F928FE28AC09AD09AC0A30
:1001F8000319AD0A2D08F4002C08F3000800831237
:100208000313AB01F61F09290A291129F509F60973
:10021800F50A0319F60AAB01AB0AF41F14291529CC
:100228001A29F309F409F30A0319F40A7308740480
:1002380003191F2920294F29AA01AA0A2E290130AA
:100248000310F30DF40DFF3E031D24290130F700C0
:100258007708AA07F41F312932292329740876025E
:10026800031D382973087502031C3B293C294229C0
:100278007308F5027408031CF603F6020130031034
:10028800F40CF30CFF3E031D43290130AA02031DA1
:100298004E294F2932292B08031953295429592942
:1002A800F509F609F50A0319F60A7608F40075083F
:1002B800F3000800831603130F178F160F120F147D
:1002C800831603178901033088000330831603134C
:1002D800850088018601870108308900831203138D
:1002E80085018801860187018901831603139F13FD
:1002F8001F129F12831203131F083F3980389F0073
:10030800C3309F052930F300F30B882900008312BE
:1003180003131F148B178B160B110B17831603135C
:100328000C17831203130C13831603138112811104
:10033800011581140114EC308312031381000800A5
:100348000B1DA729A829CA298312031388010908A4
:10035800031DAF29B029B8293408870008140130D3
:10036800F00070088907C7290903031DBC29BD29A6
:10037800C129330887008814B32932088700081573
:100388000908023E8900EC3081000B118312031327
:100398000C1FCF29D029E1291F0CF000700C0F3950
:1003A800003A031DD829D929DC291E088600E0292E
:1003B8001E08F0007008FA000C1372088A00710E0B
:1003C8008300FE0E7E0E09000A128A115E210A12AF
:1003D8008A11831203139F14831203139F18F5299C
:1003E800F629F0291F0CB100310C0F39003A031D12
:1003F800FE29FF29042A1F08C33904389F00062A4A
:10040800C3309F05133083120313B100B10B0A2ABE
:100418000D2A831203139F140A128A1129200A1223
:100428008A11F0290A128A110C287E088A007F088E
:1004380082000A128A1119220A128A118000840A7B
:1004480004087D0603190034FF0A0319FE0A1D2A51
:100458003F3406345B344F3466346D347D340734AE
:040468007F34673442
:04400E00C430FF3F7C
:00000001FF
